:100000007AEF04F00000000000EF00F000000000B4
:0A0010000000000000000000F3D71C
:10001C00560E0C6EB50E0D6E0D2EFED70C2EFCD79B
:06002C00000000001200BC
:0E003200030E0D6E0D2EFED700000000120012
:0E004000C70E0D6E0D2EFED700000000120040
:10004E000001C2BF02D0839801D08388C2BD02D006
:10005E00839201D08382C2BB02D0839C01D0838C59
:10006E00C2B902D0839E01D0838E8DB102D0818C15
:10007E0001D0819C8188D6DF8198C2B702D0839847
:10008E0001D08388C2B502D0839201D08382C2B3DD
:10009E0002D0839C01D0838CC2B102D0839E01D04A
:1000AE00838E8DB102D0818C01D0819C8188BADF84
:0E00BE0081988DA102D0ABDF01D0BBDF120014
:1000CC000134083609360450085E0550D8A0053CAA
:1000DC00095E003601360F0E0C6E013408360936F7
:1000EC00045000A006D0085E0550D8A0053C095E5F
:1000FC0005D008260550D8B0053C09260036013637
:10010C000C2EEBD700B006D0045008260550D8B002
:08011C00053C09260000120059
:100124000B840BAE9DEF00F0010E036E026A016AB0
:0A013400006A0A360232FF0E1200C4
:08013E000AAE029E000E120041
:0E014600026A016A006A086A036A000E12006B
:0E01540000018D91C1C0C2F078DF8D811200D4
:0E016200570E0D6E0D2EFED70000000012008D
:080170000B6A0B86FF0E120062
:100178000B820BAEC6EF00F00368026801680068E6
:080188000A360232FF0E1200DC
:100190000B800BAED4EF00F0026A0AAEFF0E026EC7
:0C01A000016E006E0A360232FF0E1200E3
:1001AC000450000A08E10550000A05E1FF0E006E3C
:1001BC007F0E016E57D00D6A096A086A0150001053
:1001CC00D8B4000C015005180A6E0ABE0D1E0B6A3D
:1001DC0005AE05D0041E051E042AD8B4052A01AEAE
:1001EC0005D0001E011E002AD8B4012A01500510AA
:1001FC000A6E0ABE10D064DF0BB020D00DAE000C1E
:10020C00001E011E002AD8B4012A081E091E082A45
:10021C00D8B4092A000C05AE0DD001BE07D0015090
:10022C00096E0050086E016A006AE8D7016A006A1C
:10023C00002A000C011E001E0B2ADDD7082AD8B498
:10024C00092A0450085CD8A4D9D70550095CD8A455
:10025C00D5D7096A086A002AD8B4012A01AECED7CC
:06026C000000FF0C12006F
:1002720010D0800E0001BC6F1AD0C00EBC6F17D018
:10028200940EBC6F14D0D40EBC6F11D0800EBC6F14
:100292000ED00001BC51010AECE0BC51020AEDE0B3
:1002A200BC51030AEDE0BC51040AEDE0EFD7BD05F5
:1002B200006EBC51002600C0BCF000C0C2F0C6DE19
:1002C2008D91C06BC051BE25E96E000EBF21EA6E52
:1002D200EE520BE0C051BE25E96E000EBF21EA6E60
:0E02E200EECFC1F036DFC02BEDD78D811200BC
:1002F0000C6A0E6A0250D8A491EF01F001C002F01E
:1003000000C001F0006A0E860250D8A491EF01F0FF
:1003100001C002F0016A0E960E880250D8B4A3EF15
:1003200001F00E50035ED8A4D8A0A8EF01F0D89039
:1003300002BEADEF01F0003601360236032E98EF13
:1003400001F0A8EF01F0010E0C6EFDDEB0EF01F040
:10035000020E0C6EE7DEB0EF01F0040E0C6EEFDE65
:02036000120089
:10036200C26A070EC012C08EBBC000F000360090F9
:10037200003600900050C212C280F2DEC282C2A2D7
:1003820001D0FDD7C4CF01F0006AC3500012000EA5
:060392000112C2901200EE
:10039800AECF01F0ABA202D0AB98AB8801C000F0A1
:0203A800120041
:1003AA009398939C959E959C959295988198819CFB
:1003BA0083988392839C839E2CDE2BDE2ADE838C99
:1003CA00838E818831DE819824DE81882DDE8198B2
:1003DA0020DE818829DE81981CDE839E818824DEC6
:1003EA00819817DE818820DE8198839C83888188A2
:1003FA001BDE81980EDE8398838E818815DE8198B4
:10040A00839E818811DE819804DE81880DDE8198C1
:10041A00838E818809DE8198FCDD839E818804DED3
:10042A00819883888382838C838E8188FDDD81987D
:08043A00F0DD00018D811200CC
:100442000900F5CFE6FF0006FBE10106F9E1120023
:10045200F00E0001B76F040EB86FBB0EB96F000E3D
:10046200BA6F980EAB6F030EAC6F000EAD6F000E3D
:10047200AE6FB80EAF6F060EB06F000EB16F000E0A
:10048200B26FFF0EB36FFF0EB46F000EB56F000EAA
:10049200B66FAC8A900EAB6E948E949C9EAA03D0DB
:0804A200AECF00F0FBD7120001
:1004AA00FF0E00018E6FFF0E8F6FFF0E906FFF0E13
:0E04BA00916FC26A070EC012C08EC28012007F
:1004C8000050086E0150006E016A026A036A0B6AE6
:1004D8000C6A960E036E0A6A00C001F008C000F0AC
:0804E800086A026A01DF12003C
:0E04F000ACB202D00000FCD7BBC0ADFF1200C2
:1004FE00086A096A000E0762036404EF03F00250F3
:10050E0006180A6E075003267E0ED8A095EF02F04D
:10051E00035ED8B008EF03F099EF02F0035ED8A0A7
:10052E000CEF03F0028E068E02C00EF001C00BF02F
:10053E0000C00DF000500402F4CF0CF00150050283
:10054E00F4CF00F0F3CF08F00402F3500C26F45071
:10055E000822000E00220D500502F3500C26F45016
:10056E000822000E002202500402F3500826F45016
:10057E00002202500502016A000E0122F3500026ED
:10058E00F45001220D500602F3500826F4500022BA
:10059E00026A000E012202220B500602F3500026C0
:1005AE00F4500122000E02220E500602F3500126D4
:1005BE00F450022202BEECEF02F00836003601368D
:1005CE0002360306D8B40CEF03F0FFEF02F0D8802A
:1005DE00800E08640030000E002201220222D8A0F4
:1005EE00FFEF02F0023201320032034A08EF03F04D
:1005FE000AAE029E000E0EEF03F0010E9DDD0EEF11
:10060E0003F0020EB2DD0EEF03F0040E84DD1200D5
:10061E000B6A0C6A0A6A0350D8B444EF03F00A9EC0
:10062E00028E860E035E03BE22EF03F0D8B422EFD5
:10063E0003F047EF03F0036C080E035CD8A030EF15
:10064E0003F0036E0236026A0350D8A4D89039EF35
:10065E0003F00350D8B439EF03F0D8900232032ED2
:10066E0034EF03F00BBC02A044EF03F0D8A044EF2C
:10067E0003F0022AD8B44EEF03F0016A53EF03F0F1
:10068E000B800BAE57EF03F0016A57EF03F0010E2C
:10069E000C6E77DD59EF03F0000E0C6E59EF03F080
:0A06AE00FF0E0C6E0250006E1200E9
:0A06B800000E9EBA010E006E120043
:1006C2008AC08BF0000E00018C6F0A0E046E000EC1
:1006D200056E8BC000F08CC001F067DD08C000F031
:1006E20009C001F0300E00242C6E0A0E046E000EBA
:1006F200056E8BC000F08CC001F057DD0A0E046E4F
:10070200000E056E52DD08C000F009C001F0300E87
:1007120000242B6E640E046E000E056E8BC000F07A
:100722008CC001F042DD0A0E046E000E056E3DDD46
:1007320008C000F009C001F0300E00242A6EE80E55
:10074200046E030E056E8BC000F08CC001F02DDD2F
:100752000A0E046E000E056E28DD08C000F009C006
:1007620001F0300E0024296E020E0001BC6F010E52
:0E077200BD6F1D0EBE6F000EBF6F7ADD120050
:100780000450000A12E10550000A0FE10650000A69
:100790000CE10750000A09E1FF0E006EFF0E016E2A
:1007A0007F0E026EFF0E036EA4D0086A096A07501E
:1007B000D8B46BEF04F00350D8B46FEF04F00250DC
:1007C00006180A6E028E068E0E6A02C008F001C07C
:1007D0000CF000C00DF004500D5E0550D8A0053C93
:1007E0000C5E0650D8A0063C085E086A0C6A0D6ACA
:1007F000D8A002EF04F0D890023201320032083261
:10080000010E0E6E0750035ED8A00FEF04F07E0EAF
:100810000E240326D8B073EF04F015EF04F07E0E1B
:100820000E240326D8A077EF04F0180E0B6E0D36B9
:100830000C3608360036013602360E360450005E9D
:100840000550D8A0053C015E0650D8A0063C025ECB
:1008500006340E120EA030EF04F00D803BEF04F0D2
:10086000045000260550D8B0053C01260650D8B0EB
:10087000062802260D900B2E17EF04F061EF04F00E
:10088000D8900036013602360E360450005E055010
:10089000D8A0053C015E0650D8A0063C025E063496
:1008A0000E10010B0D26D8B00C2AD8B4082AD8A4F3
:1008B00061EF04F008320C320D32032AD8B473EF22
:1008C00004F00AAE089E0850026E0C50016E0D50E6
:1008D000006E79EF04F0010E4BDC79EF04F0020EAC
:1008E00032DC79EF04F0040E47DC79EF04F0080EF7
:0408F00019DC1200FD
:1008F4009EEC05F0090EC16E2F0E926E010E966EDF
:100904009590959A9694929895944DDD010EC26FA8
:1009140027EC00F00C0EC26F27EC00F0010EBC6F48
:10092400010EBD6F150EBE6F000EBF6FA0DC7A0EF8
:100934000B6EC10E0C6E810E0D6E0D2EFED70C2E9D
:10094400FCD70B2EFAD700000000ADDDB886040EEC
:10095400B06EE10EAF6EAC847ADD83948390839A9B
:1009640084948098656B666B676B686B656B666B6C
:10097400676B686B18DD010EBC6F010EBD6FAAC0FA
:10098400BEF0ABC0BFF073DC0C0EC26F27EC00F0FE
:10099400800E6819006E800E005C08E1000E675D31
:1009A40005E1270E665D02E1100E655DD8B087D0C3
:1009B400010E6527000E662367236823050EBB6FAF
:1009C400CEDC00C092F001C093F07CDD000E046E1A
:1009D400C00E056E7F0E066E880E076ECFDE000E0B
:1009E400046E000E056E480E066E850E076E85DDDC
:1009F40014DE00C08AF000C0BBF078DD60DE010EBA
:100A0400BC6F010EBD6FAAC0BEF0ABC0BFF02FDC3F
:100A140051DE005253E0BEDC00C0AAF00050300AA0
:100A240007E1839A7F0E0001AA6F000EAB6F09D015
:100A34000001AA51310A05E1838A740EAA6F000EDF
:100A4400AB6FAA51320A06E18390690EAA6F000EB9
:100A5400AB6F08D0AA51330A05E18380440EAA6F14
:100A6400000EAB6FAA51340A06E18098390EAA6FC2
:100A7400000EAB6F08D0AA51350A05E180882E0E0E
:100A8400AA6F000EAB6FAA51360A06E184944F0E8A
:100A9400AA6F000EAB6F08D0AA51370A05E184840F
:100AA4005A0EAA6F000EAB6F010EBC6F010EBD6F24
:100AB400AAC0BEF0ABC0BFF039EC01F069D756D77D
:020AC400FFD75A
:100B3C0010EE15F0750E006E010E016EC60EF66EFF
:0E0B4C000A0EF76E000EF86E21EC02F0120099
:080AC60057656C636F6D65005C
:100ACE005265666572656E6365203D20303030304C
:010ADE000017
:0B0ADF00204C616D70204F4E20200065
:0B0AEA00204C616D70204F464620003C
:0B0AF5002050554D5031204F4E200086
:0B0B0000204D6F746F7220424B2000EC
:0B0B0B00204D6F746F722046522000D6
:040B160000000000DB
:0B0B1A002050554D5031204F46460042
:0B0B25002050554D5032204F4E200054
:0B0B30002050554D5032204F4646002B
:020000040030CA
:0E000000240E3F1EFF8381FF0FC00FE00F4054
:00000001FF
